:1000000007C1000035C1000033C1000031C100004C
:100010002FC100002DC100002BC1000029C100002C
:1000200027C1000025C1000023C1000021C100003C
:100030001FC100001DC100001BC1000019C100004C
:1000400017C1000015C1000013C1000011C100005C
:100050000FC100000DC100000BC10000FCC1000079
:1000600007C1000053C5000087C5000001C10000A2
:10007000FFC00000FDC00000FBC00000F9C0000090
:10008000F7C00000F5C00000F3C00000F1C00000A0
:10009000EFC00000EDC00000EBC00000E9C00000B0
:1000A000E7C00000E5C00000E3C00000E1C00000C0
:1000B000DFC00000DDC00000DBC00000D9C00000D0
:1000C000D7C00000D5C00000D3C00000D1C00000E0
:1000D000CFC00000CDC00000CBC00000C9C00000F0
:1000E000C7C000006E037103600364036A03A803C2
:1000F000750379037F03830387038D0391039503BE
:10010000A8039B039F03A30300000A0B02090C0D25
:100110000E080703040100000000000000000000BA
:1001200000000000000000000000000000000000CF
:10013000000000001211100000000000000000008C
:1001400000000000000000000000000000000102AC
:1001500010202008081020401020408002010201D9
:100160000804020101020408102040808040201091
:1001700008040201800402018040201008040201EA
:100180000804020101020408102040800102040852
:10019000102040800505050507050808080802022B
:1001A00002020A0A08080404040401010101010111
:1001B00001010303030303030303040707070C0CF4
:1001C0000C0C0C0C0C0C02020202060606060606BB
:1001D00006060B0B0B0B0B0B0B0B00002200250074
:1001E00028002B002E003100340002010000050120
:1001F00008010B0100002100240027002A002D0027
:100200003000330001010000040107010A01EE057E
:1002100011241FBECFEFD1E2DEBFCDBF00E00CBF87
:1002200012E0A0E0B2E0E0EBF5E100E00BBF02C0BD
:1002300007900D92A233B107D9F722E0A2E3B2E012
:1002400001C01D92AA3DB207E1F712E0C0E1D2E081
:1002500000E006C022970109FE010BBF0E94C30AFD
:10026000CE30D10780E00807A9F706D70C94D60A4C
:10027000C7CE26E040E855E260E070E08DE392E012
:10028000E5D361E080910C0264C2EBD125E0AC01C2
:10029000249FC001259F900D1124BC01882777FD64
:1002A0008095982FF8D720E030E040E85AE30E948C
:1002B000FF0920E030E040EA5FE3E9D62AE037EDCD
:1002C00043EA5BE34DD720E030E040E251E4E0C692
:1002D00008954F925F926F927F928F929F92AF920A
:1002E000BF92CF92DF92EF92FF920F931F93CF9323
:1002F000DF93CDB7DEB728970FB6F894DEBF0FBEF9
:10030000CDBF8CE0882E82E0982E61E0F4018081E0
:1003100059D28091320290913302B7DF69837A8398
:100320008B839C8380910A0290910B02AEDF2B019C
:100330003C018091080290910902A7DF6D837E83C2
:100340008F839887809106028CD1BC01882777FD26
:100350008095982F1F921F921F9224E62F93A12C15
:10036000B12C6501EE24EA9413E0F12E00E010E0D8
:1003700020E030E0A9013AD66B017C0122E030E0B8
:1003800049815A816B817C818DE392E02ED66FE0AA
:1003900072E08DE392E0A3D422E030E0B301A20149
:1003A0008DE392E022D66FE072E08DE392E097D485
:1003B00022E030E04D815E816F8178858DE392E0AF
:1003C00014D66FE072E08DE392E089D4C701B601E4
:1003D00062D7AB01BC0122E030E08DE392E005D6AC
:1003E0006FE072E08DE392E085D468EE73E080E028
:1003F00090E09ED060E0F4018081E4D10F900F90F6
:100400000F900F908091040290910502019728EEC1
:1004100033E0829FB001839F700D929F700D112475
:10042000882777FD8095982F28960FB6F894DEBF21
:100430000FBECDBFDF91CF911F910F91FF90EF9035
:10044000DF90CF90BF90AF909F908F907F906F90F4
:100450005F904F906DC01F920F920FB60F921124B4
:100460002F933F938F939F93AF93BF9380913502C8
:1004700090913602A0913702B09138023091340247
:1004800023E0230F2D3720F40196A11DB11D05C0D7
:1004900026E8230F0296A11DB11D209334028093FC
:1004A000350290933602A0933702B09338028091C0
:1004B000390290913A02A0913B02B0913C02019620
:1004C000A11DB11D8093390290933A02A0933B0283
:1004D000B0933C02BF91AF919F918F913F912F912B
:1004E0000F900FBE0F901F9018953FB7F894809112
:1004F000390290913A02A0913B02B0913C0226B59C
:10050000A89B05C02F3F19F00196A11DB11D3FBF4B
:100510006627782F892F9A2F620F711D811D911DDB
:1005200042E0660F771F881F991F4A95D1F70895FB
:100530008F929F92AF92BF92CF92DF92EF92FF92F3
:100540006B017C01D2DF4B015C01C114D104E104D9
:10055000F104E1F09BD5C9DF681979098A099B0983
:10056000683E73408105910580F321E0C21AD108ED
:10057000E108F10888EE880E83E0981EA11CB11CEA
:10058000C114D104E104F10431F7DFCFFF90EF9003
:10059000DF90CF90BF90AF909F908F900895789408
:1005A00084B5826084BD84B5816084BD85B5826078
:1005B00085BD85B5816085BDEEE6F0E08081816016
:1005C0008083E1E8F0E01082808182608083808116
:1005D00081608083E0E8F0E0808181608083E1EBEE
:1005E000F0E0808184608083E0EBF0E080818160D6
:1005F0008083E1E9F0E08081826080838081816096
:100600008083E0E9F0E0808181608083E1EAF0E0CE
:10061000808182608083808181608083E0EAF0E075
:10062000808181608083E1E2F1E08081826080836B
:10063000808181608083E0E2F1E08081816080835D
:10064000EAE7F0E08081846080838081826080833B
:100650008081816080838081806880831092C10066
:100660000895863308F0865320917B00982F987068
:10067000277F922B90937B00877020910E0290E44D
:10068000299F90011124822B80937C0080917A0015
:10069000806480937A0080917A0086FDFCCF8091FF
:1006A00078002091790090E0922B089590E0FC0171
:1006B0003197E231F10508F04BC0EE58FF4F53C7B8
:1006C000809180008F7703C0809180008F7D809320
:1006D0008000089580918000877FF9CF84B58F775F
:1006E00002C084B58F7D84BD08958091B0008F775E
:1006F00003C08091B0008F7D8093B00008958091F9
:1007000090008F7707C0809190008F7D03C080910B
:100710009000877F8093900008958091A0008F774C
:1007200007C08091A0008F7D03C08091A000877FCB
:100730008093A0000895809120018F7707C0809159
:1007400020018F7D03C080912001877F809320014D
:100750000895CF93DF9390E0FC01E25BFE4F24917C
:10076000FC01EC56FE4F8491882349F190E0880FFC
:10077000991FFC01EC50FE4FA591B49186529E4FFB
:10078000FC01C591D4919FB7611108C0F8948C9178
:10079000209582238C93888182230AC0623051F491
:1007A000F8948C91322F309583238C938881822BFF
:1007B000888304C0F8948C91822B8C939FBFDF9127
:1007C000CF9108950F931F93CF93DF931F92CDB7CF
:1007D000DEB7282F30E0F901E85FFE4F8491F90180
:1007E000E25BFE4F1491F901EC56FE4F0491002399
:1007F000C1F0882319F0698359DF6981E02FF0E0A7
:10080000EE0FFF1FE652FE4FA591B4919FB7F894EB
:100810008C91611103C01095812301C0812B8C93B1
:100820009FBF0F90DF91CF911F910F910895FC0111
:10083000818D228D90E0805C9F4F821B91098F7388
:1008400099270895FC01918D828D981731F0828D42
:10085000E80FF11D858D90E008958FEF9FEF0895CB
:10086000FC01918D828D981761F0828DDF01A80FB8
:10087000B11D5D968C91928D9F5F9F73928F90E0DA
:1008800008958FEF9FEF089585EE95E0892B39F05D
:1008900080E090E0892B19F098D1811125C080E08B
:1008A00090E0892B41F080E090E0892B21F00E94BC
:1008B000000081111CC080E090E0892B41F080E0B5
:1008C00090E0892B21F00E940000811113C080E08C
:1008D00090E0892BA1F080E090E0892B81F00E94CC
:1008E000000081110AC008950E940000D8CF0E9424
:1008F0000000E1CF0E940000EACF0C9400000895B0
:10090000FC01848DDF01A80FB11DA35ABF4F2C91AC
:10091000848D90E001968F739927848FA689B7897B
:100920002C93A089B1898C9180648C93938D848D54
:10093000981306C00288F389E02D80818F7D808323
:100940000895CF93DF93EC01888D8823C1F0EA8965
:10095000FB89808185FD05C0A889B9898C9186FDB8
:100960000EC00FB607FCF5CF808185FFF2CFA889B6
:10097000B9898C9185FFEDCFCE01C2DFE8CFDF9141
:10098000CF910895CF92DF92FF920F931F93CF9351
:10099000DF931F92CDB7DEB76C0181E0D601589688
:1009A0008C9358975B969C915B975C968C915C9727
:1009B000981307C05096ED91FC915197808185FD69
:1009C0002DC0F601038D10E00F5F1F4F0F7311272D
:1009D000F02EF601848DF81210C00FB607FCF9CF87
:1009E000D6015096ED91FC915197808185FFF1CF12
:1009F000C601698385DF6981ECCF838DE80FF11D26
:100A0000E35AFF4F6083D6015B960C935B97529637
:100A1000ED91FC915397808180620CC0D60156966F
:100A2000ED91FC91579760835096ED91FC91519711
:100A300080818064808381E090E00F90DF91CF918E
:100A40001F910F91FF90DF90CF900895BF92CF92AA
:100A5000DF92EF92FF92CF93DF93EC016A017B016B
:100A6000B22EE889F98982E08083411581EE58072A
:100A70006105710599F060E079E08DE390E0A701F0
:100A8000960133D5215031094109510956954795B1
:100A900037952795211580E1380790F0E889F98985
:100AA000108260E874E88EE190E0A70196011DD500
:100AB0002150310941095109569547953795279598
:100AC000EC85FD853083EE85FF852083188EEC89CB
:100AD000FD89B082EA89FB89808180618083EA890F
:100AE000FB89808188608083EA89FB8980818068B6
:100AF0008083EA89FB8980818F7D8083DF91CF911C
:100B0000FF90EF90DF90CF90BF9008951F920F92CB
:100B10000FB60F9211240BB60F922F938F939F93C2
:100B2000EF93FF93E0914D02F0914E028081E091AE
:100B30005302F091540282FD12C0908180915602BE
:100B40008F5F8F7320915702821751F0E091560208
:100B5000F0E0E35CFD4F958F8093560201C08081E9
:100B6000FF91EF919F918F912F910F900BBE0F905E
:100B70000FBE0F901F9018951F920F920FB60F92F5
:100B800011240BB60F922F933F934F935F936F9364
:100B90007F938F939F93AF93BF93EF93FF938DE3D7
:100BA00092E0AEDEFF91EF91BF91AF919F918F9157
:100BB0007F916F915F914F913F912F910F900BBE5D
:100BC0000F900FBE0F901F9018958DE392E02FDECF
:100BD00021E0892B09F420E0822F08951092400231
:100BE00010923F0288EE93E0A0E0B0E080934102D3
:100BF00090934202A0934302B093440285E192E0B5
:100C000090933E0280933D0285EC90E090934A02DF
:100C10008093490284EC90E090934C0280934B02C5
:100C200080EC90E090934E0280934D0281EC90E036
:100C30009093500280934F0282EC90E09093520286
:100C40008093510286EC90E090935402809353027B
:100C500010925602109257021092580210925902A6
:100C60000895CF92DF92EF92FF920F931F93CF934D
:100C7000DF937C016A01EB0100E010E00C151D051B
:100C800071F06991D701ED91FC910190F081E02D17
:100C9000C7011995892B19F00F5F1F4FEFCFC801BE
:100CA000DF91CF911F910F91FF90EF90DF90CF9048
:100CB00008956115710581F0DB010D900020E9F7C1
:100CC000AD0141505109461B570BDC01ED91FC91E0
:100CD0000280F381E02D199480E090E00895E9CF3F
:100CE000DC01ED91FC910190F081E02D199461E21D
:100CF00072E0DFCF0F931F93CF93DF93EC01D9DF27
:100D00008C01CE01F4DF800F911FDF91CF911F91F5
:100D10000F9108958F929F92AF92BF92DF92EF92C0
:100D2000FF920F931F93CF93DF93CDB7DEB7A197B9
:100D30000FB6F894DEBF0FBECDBF7C01F42FD52EC9
:100D4000CB0119A2223008F42AE08E010F5D1F4F5B
:100D5000822E912CA12CB12C6F2F7D2DA5019401F9
:100D6000C4D3F22FD32ECA01015011096A3014F4F2
:100D7000E0E301C0E7E3E60FD801EC93232B242B3B
:100D8000252B51F7B801C70194DFA1960FB6F8944F
:100D9000DEBF0FBECDBFDF91CF911F910F91FF90AE
:100DA000EF90DF90BF90AF909F908F900895CF927B
:100DB000DF92EF92FF920F931F93CF93DF93EC019B
:100DC0006A017B012115310579F4E881F9810190EF
:100DD000F081E02D642FDF91CF911F910F91FF9053
:100DE000EF90DF90CF9019942A303105D9F477FF36
:100DF00018C06DE275DF8C0144275527BA014C19E4
:100E00005D096E097F092AE0CE0184DF800F911F02
:100E1000DF91CF911F910F91FF90EF90DF90CF90D6
:100E200008952AE0B701A601CE01DF91CF911F916D
:100E30000F91FF90EF90DF90CF906CCF4F925F9229
:100E40006F927F928F929F92AF92BF92CF92DF92DA
:100E5000EF92FF920F931F93CF93DF93EC016A0100
:100E60007B01B22E9A01AB01C701B6012BD38823B7
:100E700019F064E272E024C026013701E89477F8A3
:100E80002FEF3FEF4FE75FE7C301B2011BD38111A3
:100E90000CC02FEF3FEF4FE75FE7C301B2015CD11A
:100EA00018161CF468E272E00BC02FEF3FEF4FE71B
:100EB0005FE4C701B6019FD21816A4F46CE272E099
:100EC000CE01DF91CF911F910F91FF90EF90DF90B6
:100ED000CF90BF90AF909F908F907F906F905F90DA
:100EE0004F90E7CE2FEF3FEF4FE75FECC701B60122
:100EF00033D187FDE3CF20E030E0A901C701B6017F
:100F00002BD187FF09C06DE2CE01EADE8C01F7FA32
:100F1000F094F7F8F09402C000E010E0A12C60E03B
:100F200070E080E09FE3AB1439F020E030E040E275
:100F300051E416D1A394F7CF9B01AC01C701B601D0
:100F4000A7D06B017C0179D12B013C01A2D19B017F
:100F5000AC01C701B6019BD06B017C012AE0B30153
:100F6000A201CE01D7DE080F191FBB2031F060E3CC
:100F700072E0CE019EDE080F191F7B2C772019F13D
:100F800020E030E040E251E4C701B60138D26B0105
:100F90007C014ED14B01AA2497FCA094BA2C2AE0E4
:100FA00030E0B501A401CE0102DF080F191FC50111
:100FB000B40171D19B01AC01C701B60168D06B01CE
:100FC0007C017A94DBCFC801DF91CF911F910F9103
:100FD000FF90EF90DF90CF90BF90AF909F908F9059
:100FE0007F906F905F904F90089528CF4F925F92BF
:100FF0006F927F92AF92BF92CF92DF92EF92FF9269
:101000000F931F93CF93DF93CDB7DEB729013A013A
:10101000621B730B840B950B2A893B894C895D8974
:101020002A193B094C095D092A8B3B8B4C8B5D8B44
:101030009B01AC016A897B898C899D8947D2E41820
:10104000F50806091709A801970171D22A0D3B1D61
:101050004C1D5D1DCA01B901DF91CF911F910F9108
:10106000FF90EF90DF90CF90BF90AF907F906F9008
:101070005F904F900895089592DAFDDFFAD8C4E4A6
:10108000D4E027D92097E9F3FFDBFBCF0895505830
:10109000BB27AA270ED075C166D130F06BD120F0E6
:1010A00031F49F3F11F41EF45BC10EF4E095E7FBB1
:1010B00051C1E92F77D180F3BA176207730784070C
:1010C000950718F071F49EF58FC10EF4E0950B2E84
:1010D000BA2FA02D0B01B90190010C01CA01A0018A
:1010E0001124FF27591B99F0593F50F4503E68F1E5
:1010F0001A16F040A22F232F342F4427585FF3CF26
:10110000469537952795A795F0405395C9F77EF4F6
:101110001F16BA0B620B730B840BBAF09150A1F03F
:10112000FF0FBB1F661F771F881FC2F70EC0BA0FC5
:10113000621F731F841F48F4879577956795B7954D
:10114000F7959E3F08F0B3CF9395880F08F0992745
:10115000EE0F979587950895D9D008F481E008950A
:101160000CD00FC107D140F0FED030F021F45F3F2A
:1011700019F0F0C0511139C1F3C014D198F399237B
:10118000C9F35523B1F3951B550BBB27AA2762174B
:101190007307840738F09F5F5F4F220F331F441F90
:1011A000AA1FA9F333D00E2E3AF0E0E830D09150C8
:1011B0005040E695001CCAF729D0FE2F27D0660FB5
:1011C000771F881FBB1F261737074807AB07B0E8F4
:1011D00009F0BB0B802DBF01FF2793585F4F2AF00A
:1011E0009E3F510568F0B6C000C15F3FECF3983EEA
:1011F000DCF3869577956795B795F7959F5FC9F767
:10120000880F911D9695879597F90895E1E0660FEF
:10121000771F881FBB1F621773078407BA0720F068
:10122000621B730B840BBA0BEE1F88F7E0950895D1
:1012300004D06894B111D9C00895BCD088F09F57EC
:1012400090F0B92F9927B751A0F0D1F0660F771F12
:10125000881F991F1AF0BA95C9F712C0B13081F0F2
:10126000C3D0B1E00895C0C0672F782F8827B85F3A
:1012700039F0B93FCCF3869577956795B395D9F753
:101280003EF490958095709561957F4F8F4F9F4F5D
:101290000895E89409C097FB3EF490958095709569
:1012A00061957F4F8F4F9F4F9923A9F0F92F96E9B2
:1012B000BB279395F695879577956795B795F11127
:1012C000F8CFFAF4BB0F11F460FF1BC06F5F7F4FC4
:1012D0008F4F9F4F16C0882311F096E911C07723D6
:1012E00021F09EE8872F762F05C0662371F096E8DF
:1012F000862F70E060E02AF09A95660F771F881FAE
:10130000DAF7880F9695879597F90895990F000851
:10131000550FAA0BE0E8FEEF16161706E807F907C7
:10132000C0F012161306E407F50798F0621B730B62
:10133000840B950B39F40A2661F0232B242B252BE3
:1013400021F408950A2609F4A140A6958FEF811D86
:10135000811D089597F99F6780E870E060E0089527
:101360009FEF80EC089500240A94161617061806BD
:101370000906089500240A94121613061406050699
:101380000895092E0394000C11F4882352F0BB0F2A
:1013900040F4BF2B11F460FF04C06F5F7F4F8F4F8D
:1013A0009F4F089557FD9058440F551F59F05F3FC8
:1013B00071F04795880F97FB991F61F09F3F79F077
:1013C00087950895121613061406551FF2CF4695F9
:1013D000F1DF08C0161617061806991FF1CF86957B
:1013E0007105610508940895E894BB27662777275F
:1013F000CB0197F908958ADF08F48FEF08950BD099
:10140000C0CFB1DF28F0B6DF18F0952309F0A2CFE6
:10141000A7CF1124EACFC6DFA0F3959FD1F3950F94
:1014200050E0551F629FF001729FBB27F00DB11D68
:10143000639FAA27F00DB11DAA1F649F6627B00DF8
:10144000A11D661F829F2227B00DA11D621F739FE1
:10145000B00DA11D621F839FA00D611D221F749FEF
:101460003327A00D611D231F849F600D211D822F36
:10147000762F6A2F11249F5750408AF0E1F088237D
:101480004AF0EE0FFF1FBB1F661F771F881F91508A
:101490005040A9F79E3F510570F05CCFA6CF5F3F4B
:1014A000ECF3983EDCF3869577956795B795F795BD
:1014B000E7959F5FC1F7FE2B880F911D9695879545
:1014C00097F9089523DF880B990B0895DB018F931B
:1014D0009F934FD0BF91AF91A29F800D911DA39F6D
:1014E000900DB29F900D11240895A1E21A2EAA1B0F
:1014F000BB1BFD010DC0AA1FBB1FEE1FFF1FA217C4
:10150000B307E407F50720F0A21BB30BE40BF50BC0
:10151000661F771F881F991F1A9469F76095709549
:10152000809590959B01AC01BD01CF010895052EDA
:1015300097FB16F400940FD057FD05D0D6DF07FCBB
:1015400002D046F408C050954095309521953F4F04
:101550004F4F5F4F089590958095709561957F4F9F
:101560008F4F9F4F0895EE0FFF1F0590F491E02DD0
:1015700019940DD0A59F900DB49F900DA49F800D40
:10158000911D112408950790F691E02D1994A29FC2
:10159000B001B39FC001A39F700D811D1124911D47
:1015A000B29F700D811D1124911D0895F894FFCFF5
:1015B000010000001E003900020001000D00013B87
:1015C0000000000000C2043106170430042204A108
:1015D000040D0A006E616E00696E66006F7666002B
:0215E0002E00DB
:00000001FF
